S013000050574D202D2042617369632E73726563CE
S11300000C945E000C947B000C947B000C947B009D
S11300100C947B000C947B000C947B000C947B0070
S11300200C947B000C947B000C947B000C947B0060
S11300300C947B000C947B000C947B000C947B0050
S11300400C947B000C947B000C947B000C947B0040
S11300500C947B000C947B000C947B000C947B0030
S11300600C947B000C947B000C947B000C947B0020
S11300700C947B000C947B000C947B000C947B0010
S11300800C947B000C947B000C947B000C947B0000
S11300900C947B000C947B000C947B000C947B00F0
S11300A00C947B000C947B000C947B000C947B00E0
S11300B00C947B0046017D014D01840111241FBE77
S11300C0CFEFD8E0DEBFCDBF21E0A0E0B1E001C0BA
S11300D01D92A331B207E1F710E0CCE5D0E004C0F3
S11300E02197FE010E94BD01CA35D107C9F70E94BC
S11300F08B010C94C3010C9400000F931F93FC011B
S113010072836183548343833683258310870783F3
S11301101F910F910895FC0112821182148213829F
S113012016821582108617820895FC0181819281BE
S11301308434910509F58AB180668AB9A181B281B6
S11301408C918F7380688C93A181B2818C918F7C08
S113015080628C93A381B4818C91877F8C93A181DD
S1130160B2818C9183608C930380F481E02D808133
S1130170887F826080834CC08038910519F584B1F2
S1130180866084B9A181B2818C918F7380688C93CD
S1130190A181B2818C918F7C80628C93A181B28188
S11301A08C918C7F81608C93A381B4818C91877EA8
S11301B088608C930380F481E02D8081887F826045
S11301C0808326C0803B910519F584B1886084B989
S11301D08AB188608AB9A181B2818C918F73806859
S11301E08C93A181B2818C918F7C80628C93A3814A
S11301F0B4818C91877F8C93A181B2818C9183602F
S11302008C930380F481E02D8081887F82608083D9
S113021078940895662319F0613041F00895DC0163
S11302201596ED91FC91169740830895DC0117967D
S1130230ED91FC91189740830895EF92FF920F93EC
S11302401F93CF93DF93EC017B01019779F46F3F08
S11302507F4F61F408E410E027E430E045E450E027
S113026064E470E080E091E00E947D00CD2B39F4DD
S1130270EF20E09421F480E091E00E948B00DF9174
S1130280CF911F910F91FF90EF9008956FEF7FEF43
S113029081E090E00E941D0108956FEF7FEF80E000
S11302A090E00E941D010895EF92FF920F931F9317
S11302B0CF93DF93EC017B01019779F46F3F7F4F7C
S11302C061F40AE810E028E830E041E850E060E832
S11302D070E089E091E00E947D00CD2B39F4EF209D
S11302E0E09421F489E091E00E948B00DF91CF91AA
S11302F01F910F91FF90EF9008956FEF7FEF81E0D2
S113030090E00E94540108956FEF7FEF80E090E049
S11303100E945401089580E091E00E94950089E0D4
S113032091E00E9495004091120160E080E091E02C
S11303300E940A0140911201409561E080E091E041
S11303400E940A014091120161E089E091E00E945B
S11303500A0140911201409560E089E091E00E9419
S11303600A01809112018F5F809312018FE39CE94F
S11303700197F1F700C00000D6CFEE0FFF1F0590E4
S1130380F491E02D099410E0CCE5D0E004C0FE0126
S11303900E94BD012196CE35D107C9F7F894FFCF4D
S9030000FC
